{
  "transactions": [
    {
      "hash": "0xf2cc7a408dedce469319d7d28a0f499dca82ee7483d7206dfe63992689a81a88",
      "transactionType": "CALL",
      "contractName": null,
      "contractAddress": "0xdcdf94053c9fcfe5bb7525c060b47bbc6d166ce3",
      "function": "mint(address,uint256)",
      "arguments": [
        "0xCD8946Dda83af26E817579A40587efeC05aeC45B",
        "1"
      ],
      "transaction": {
        "from": "0x11f392ba82c7d63bfdb313ca63372f6de21ab448",
        "to": "0xdcdf94053c9fcfe5bb7525c060b47bbc6d166ce3",
        "gas": "0x422ad",
        "value": "0x136ebf9a65fac0",
        "input": "0x40c10f19000000000000000000000000cd8946dda83af26e817579a40587efec05aec45b0000000000000000000000000000000000000000000000000000000000000001",
        "nonce": "0xd",
        "chainId": "0x61",
        "accessList": null,
        "type": null
      },
      "additionalContracts": [],
      "isFixedGasLimit": false
    }
  ],
  "receipts": [
    {
      "status": "0x1",
      "cumulativeGasUsed": "0x1fe331",
      "logs": [
        {
          "address": "0x563f5a7fa101dd7051853604ec63103ab6226c7b",
          "topics": [
            "0xddf252ad1be2c89b69c2b068fc378daa952ba7f163c4a11628f55a4df523b3ef",
            "0x00000000000000000000000011f392ba82c7d63bfdb313ca63372f6de21ab448",
            "0x0000000000000000000000007bb8be3d9015682d7ac0ea377dc0c92b0ba152ef"
          ],
          "data": "0x0000000000000000000000000000000000000000000000008ac7230489e80000",
          "blockHash": "0x4be79dc40871e23feaf14e172a08842bda8cb02e85d0501289d92d01ef0317b9",
          "blockNumber": "0x261ad49",
          "transactionHash": "0xf2cc7a408dedce469319d7d28a0f499dca82ee7483d7206dfe63992689a81a88",
          "transactionIndex": "0x17",
          "logIndex": "0x2f",
          "removed": false
        },
        {
          "address": "0xae13d989dac2f0debff460ac112a837c89baa7cd",
          "topics": [
            "0xe1fffcc4923d04b559f4d29a8bfc6cda04eb5b0d3c460751c2402c5c5cc9109c",
            "0x000000000000000000000000e1053ae1857476f36a3c62580ff9b016e8ee8f6f"
          ],
          "data": "0x000000000000000000000000000000000000000000000000001365a749e19770",
          "blockHash": "0x4be79dc40871e23feaf14e172a08842bda8cb02e85d0501289d92d01ef0317b9",
          "blockNumber": "0x261ad49",
          "transactionHash": "0xf2cc7a408dedce469319d7d28a0f499dca82ee7483d7206dfe63992689a81a88",
          "transactionIndex": "0x17",
          "logIndex": "0x30",
          "removed": false
        },
        {
          "address": "0xae13d989dac2f0debff460ac112a837c89baa7cd",
          "topics": [
            "0xddf252ad1be2c89b69c2b068fc378daa952ba7f163c4a11628f55a4df523b3ef",
            "0x000000000000000000000000e1053ae1857476f36a3c62580ff9b016e8ee8f6f",
            "0x0000000000000000000000003e807220ca84b997c0d1928162227b46c618e0c5"
          ],
          "data": "0x000000000000000000000000000000000000000000000000001365a749e19770",
          "blockHash": "0x4be79dc40871e23feaf14e172a08842bda8cb02e85d0501289d92d01ef0317b9",
          "blockNumber": "0x261ad49",
          "transactionHash": "0xf2cc7a408dedce469319d7d28a0f499dca82ee7483d7206dfe63992689a81a88",
          "transactionIndex": "0x17",
          "logIndex": "0x31",
          "removed": false
        },
        {
          "address": "0x3e807220ca84b997c0d1928162227b46c618e0c5",
          "topics": [
            "0xd0c3c799bf9e2639de44391e7f524d229b2b55f5b1ea94b2bf7da42f7243dddd"
          ],
          "data": "0x0000000000000000000000000000000000000000000000000000000000000020000000000000000000000000000000000000000000000000b8159170038f96fb000000000000000000000000dcdf94053c9fcfe5bb7525c060b47bbc6d166ce3000000000000000000000000cd8946dda83af26e817579a40587efec05aec45b00000000000000000000000000000000000000000000000000000000000005200000000000000000000000000000000000000000000000000000000000030d4000000000000000000000000000000000000000000000000000000000000000000000000000000000000000000000000000000000000000000000000000000002000000000000000000000000ae13d989dac2f0debff460ac112a837c89baa7cd000000000000000000000000000000000000000000000000001365a749e1977000000000000000000000000000000000000000000000000000000000000001a000000000000000000000000000000000000000000000000000000000000002200000000000000000000000000000000000000000000000000000000000000240d2ac2ea2fa59eb641227725284c109544838fef4dd32d9a755936edd6f088fed000000000000000000000000000000000000000000000000000000000000004440c10f1900000000000000000000000011f392ba82c7d63bfdb313ca63372f6de21ab44800000000000000000000000000000000000000000000000000000000000000010000000000000000000000000000000000000000000000000000000000000000000000000000000000000000000000000000000000000000000000000000000000000000000000000000000000000000000000000000000000000000",
          "blockHash": "0x4be79dc40871e23feaf14e172a08842bda8cb02e85d0501289d92d01ef0317b9",
          "blockNumber": "0x261ad49",
          "transactionHash": "0xf2cc7a408dedce469319d7d28a0f499dca82ee7483d7206dfe63992689a81a88",
          "transactionIndex": "0x17",
          "logIndex": "0x32",
          "removed": false
        },
        {
          "address": "0xdcdf94053c9fcfe5bb7525c060b47bbc6d166ce3",
          "topics": [
            "0x042d1dea888ee11d9a62c466a58efa801a12c4448f28d3fc1bfc05c12afefe6b"
          ],
          "data": "0xd2ac2ea2fa59eb641227725284c109544838fef4dd32d9a755936edd6f088fed",
          "blockHash": "0x4be79dc40871e23feaf14e172a08842bda8cb02e85d0501289d92d01ef0317b9",
          "blockNumber": "0x261ad49",
          "transactionHash": "0xf2cc7a408dedce469319d7d28a0f499dca82ee7483d7206dfe63992689a81a88",
          "transactionIndex": "0x17",
          "logIndex": "0x33",
          "removed": false
        }
      ],
      "logsBloom": "0x0000000080000000000000000000000000000000000100000000000000000000000000020001000000000000010040000000000000000000000000000000004000000000000000000000000800010000000000000000000020000000c010000000300400000001000000000000000000000400000000000000000010000000000000000000002000000000000000000800000001000000000000200000000000000000000000000400000000000000000000000000000000000100400000000000000002000000000000000000202000000800000000000000000000000000000000000040000000000000000000000004002100000000400000000000020000",
      "type": "0x0",
      "transactionHash": "0xf2cc7a408dedce469319d7d28a0f499dca82ee7483d7206dfe63992689a81a88",
      "transactionIndex": "0x17",
      "blockHash": "0x4be79dc40871e23feaf14e172a08842bda8cb02e85d0501289d92d01ef0317b9",
      "blockNumber": "0x261ad49",
      "gasUsed": "0x2d3e2",
      "effectiveGasPrice": "0x12a05f200",
      "from": "0x11f392ba82c7d63bfdb313ca63372f6de21ab448",
      "to": "0xdcdf94053c9fcfe5bb7525c060b47bbc6d166ce3",
      "contractAddress": null
    }
  ],
  "libraries": [],
  "pending": [],
  "returns": {},
  "timestamp": 1714580844,
  "chain": 97,
  "commit": "800fb7f"
}